:2000000000802020333500002B3500002B35000000000000000000000000000000000000F8
:200020000000000000000000000000002B35000000000000000000002B3500002B350000A0
:200040002B350000951300002B3500002B3500002B3500002B3500002B3500002B35000058
:20006000000000002B3500002B35000000000000000000002B3500002B3500002B350000A0
:200080001D0C00002B3500002B3500002B3500002B3500002B350000000000000000000057
:2000A0002B3500002B35000000000000000000002B350000000000002B3500002B35000060
:2000C000F0B5FFB08EB0049306920646929802900025E84305908C913468204603F0F9F96E
:2000E00021188B9503918C4200D3B5E00020879087A908738890059889902F46049D20787F
:20010000002800D1A9E0252805D0641C34600699A8477F1CF3E78B97601C306087AC20465D
:20012000314600F0A1F88CAA2046314600F0B9F831680A781346683B0120C341092B2BD898
:200140007B441B795B009F4404130A272727162727194B78879A682B19D1430204E04B78AE
:20016000879A6C2B10D103021A438792891C12E0879AC30204E0879A430301E0879A03039B
:2001800013438793491C06E0491C402301E0491C20231A4387920A784C1C346087A90A73B2
:2001A000732A1ED06E2A28D187992E4A1140202947D040293BD04203914238D0420291422F
:2001C0003AD0C202914205D0020391422FD0000281422CD1F8178C9904C98C9117605060CB
:2001E00033E087A80078400619D4009587A88CAA8BAB069900F015F927E007AD87A98CAA24
:20020000284600F065F9024628460699029B9847411C059D00D0C5198B95039917E000955C
:2002200087A88CAA8BAB069900F097F80DE08C9802C88C900F6008E08C9802C88C900F702E
:2002400003E08C9802C88C900F8003998B9D681C00D048E7059F00E02F4638467FB00EB077
:20026000F0BDC046603F000010B50A681378302B0FD0232B07D02B2B09D02D2B05D0202B64
:200280000ED1042306E0082304E0012302E0022300E0102304681C430460521C0A60E5E752
:2002A00010BDFEB516460D460446086802782A2A10D13068011D316000686060002805D535
:2002C0004042606020680121014321602868471C2F6017E00021303A092A08D84218531C8D
:2002E0002B60435C6F467B545278491CF3E76A460023535412784718002A03D0684602F047
:20030000B5FB606038782E2826D1781C286079782A2908D13068011D31600068A0602868F8
:20032000401C2860FEBD00203039092908D839188A1C2A604A786B461A548978401CF3E7EA
:200340006A46002111541078002804D0684602F08DFBA060FEBDA160FEBDF0B587B01E4604
:200360000C9F13681C1D14601D68002D3BD0049106908468002C04D4284603F093F8844220
:2003800003D3284603F08EF8044606984068A042039000DC204601463068019140180296F8
:2003A000306005940398A0420EDD06980078C0070AD1059801990E1A0024B44204DA20205D
:2003C0000499B847641CF8E70026049C069805998E420BDA2868010A19D12D1DC0B22146C3
:2003E000B847761CF2E70020B84718E00599039A8A4214DD0078C00711D00198451A002448
:20040000AC420CDA20200499B847641CF8E70020C0430299086001F0E7FF5821016007B03F
:20042000F0BDF0B585B00C4606460A9D1068011D116000680490002844D00393B768002FCD
:2004400004D4049803F045F8874203D3049803F040F8074602967268BA42114600DC394625
:20046000039B18680091401818600192BA420FDD02980078C0070BD10098C01B03900026A1
:200480000398864204DA20202146A847761CF7E70026BE4205DA0498805D2146A847761CAF
:2004A000F7E70198B84210DD02980078C0070CD00098C61B0027B74207DA20202146A84719
:2004C0007F1CF8E700202146A84705B0F0BDC046F0B589B005920E4604467F208000271853
:2004E0004868039000250795FF210491FE3120222046019202F0E6FF3046089702977D7067
:20050000367B31466339152906903DD801228A40604B1A42069822D007A908AA059B00F0B8
:20052000BDF806980025067B012731466F390929059504D801228A4057490A423FD1582E64
:200540003DD0016802230B40079A002A27D008994A1E08922D220A705F425F412FE000290E
:2005600012D1059B1A68111D19601268D1B24D424D410499FC316118089102990A7002685A
:2005800002218A430260CEE7252E02D0582EC3D0CAE70020607025202070012078E0002BFC
:2005A00007D149070BD5089A511E08910199117005E0089A511E08912B211170002703994F
:2005C00003976518089B0178C907264608D10299491CC91A42689142264601DC691A4E1C3D
:2005E000591C04984300002730463A4602F07EFC08900599002903D0411C0891077000E09F
:200600000146A94206D8481E691A491C202202F059FF2F7006980078C00606D4311B20220D
:20062000204602F04FFF059D2EE0A642059D2BD0311B302720463A4602F044FF069B0798E1
:200640004142414103980140012905D11878400702D43046214604E03078611C2070701C0A
:2006600037701A7B412A0CD0582A05D0612A08D0782A01D0702A07D11B781B0701D4612A43
:2006800002D142784A704770204602F022FF401909B0F0BD4230240043020000F8B5144642
:2006A0000F4605468068002804D4286810218843286001E00120A860287B1026582808D063
:2006C000782806D0702804D06F2801D1082600E00A262846194600F055F8AA68002A09D171
:2006E00002460A4306D12878000749D52B7B0020024612E02B7B642B03D1642300290BD530
:2007000004E0692B08D1002906D5692301223A60002240428A4100E00A4600941146324639
:2007200000F0B0F8A968884206DA401C21684A1E226030220A70F5E7287B582803D0782859
:2007400001D070280FD1297809070CD5702800D1782021684A1E226008702068411E21606A
:2007600030210170287B6F280AD12878000707D520684178302903D0411E21603021017010
:20078000F8BDC04610B5037B702B05D10868021D0A60006800226FE00068384A02400120CB
:2007A0004403A24222D0402A20D00402A24230D04402A24246D0C402A2422AD00403A24209
:2007C00014D0202A12D100221C46643C142C06D8A0402B4C204204D1212420423ED1582BFF
:2007E00049D10868031D0B60008845E000221C46643C142C06D8A040214C204204D121242C
:2008000020422BD1582B36D10868031D0B60006832E01A46643A142A06D89040184A1042DD
:2008200006D12122104203D10020582B024623D10868C21D072082431046083008601068F0
:20084000526819E000221C46643C142C0CD8A0400B4C20420AD12124204205D00868021D1E
:200860000A600068C21707E0582B04D10868031D0B60007800E01046114610BD603F000022
:2008800000081200FEB501920D460646582B01D0174800E0154800900898029030462843C6
:2008A00005D1029A1068411E116030210170019C3046284313D030462946224600F01AF80C
:2008C00007460D46224602F0FFFA301A0099085C029B19684A1E1A6008703E46E8E7029879
:2008E000006802F0F6FD401EFEBDC046F04000000141000080B5102A06D0082A09D1C00801
:200900004A078018C90880BD00090A078018090980BD002904D1114602F068F8002180BDDA
:20092000002302F071FD80BD10B5A0B000201F9002F0D6F900F042FF01201D9002F0E6F982
:200940001D9802F0E3F910201E9002F0DFF91D9802F0F2F91D9802F0EFF91E9802F0ECF9BE
:200960007D20C00002F0A4F9FFE790480078032818D1FFE701F006F801468D480170007867
:20098000012805D1FFE78B490878401C0870FFE787480078022804D1FFE7844900200870D3
:2009A000FFE7FFE7844800888449088084480088844908807D481C9000F042FC01461C987F
:2009C000814A11800078012807D1FFE77A49002008807B491420088043E0744800780028F2
:2009E0002BD1FFE77848179000211A91405E02F0B9F9784A1892784B199300F051FF1A9AD1
:200A0000764B1B9300F0DDF901F084FF1A9902461798694B1A80405E02F0A4F9189A199BA2
:200A200000F03EFF02461A980B461B9900F0C4F901F070FF6249088012E05C480078022812
:200A40000DD1FFE76148008861490988884206DCFFE759491920088059490880FFE7FFE77B
:200A6000FFE752480078032860D0FFE75C4800785049097888424EDAFFE700210D915048D8
:200A8000405E02F06FF9099008460D990A904D48405E02F067F9544A0E92544B0F9300F043
:200AA000FFFE024609980B920A460A990C92494A10924F4B119300F0F3FE0B9A0C9B00F092
:200AC00080F901F095FC0D9916903B48405E02F049F9129008460D9913903848405E02F031
:200AE00041F90E9A0F9B00F0DBFE109A119B0446129814940C461399159400F0D1FE149A9B
:200B0000159B00F05EF901F073FC16990246354802F08EF909E0334801F05EFE2349032051
:200B20000870244900200870FFE7FFE731480121890202F0E3FC3048027830480090304902
:200B400002F066F8009A14200A21019101F0D4FB234802782B4802902B49069102F058F8C3
:200B60000199029A2820049001F0C6FB0699002205922648825E2648039002F049F8039A3A
:200B800004981E21079101F0B7FB059A06992148825E2148089002F03BF80799089A5020E0
:200BA00001F0AAFB01F02CFBDFE6C0468C062020490520209B0620208606202084062020E5
:200BC0008A06202088062020960620209406202092062020333333333333F33F0000434002
:200BE00073062020780620209A9999999999D93F3333E33F000020207B062020BC04202046
:200C000022410000DC0420201C4100007E062020FC042020820620201C05202080B55348F7
:200C200002F0FCFB002800D19FE001200103504802F01DFBC004C00F002838D0FFE70120C2
:200C400001044C4802F013FBC003C00F00282ED0FFE701204104474802F009FB8003C00F20
:200C6000002824D0FFE74448007800281FD1FFE700224248805E4249895E401841498842C8
:200C800014DBFFE73C49022008703F480178491C01700078052808DBFFE73C490878401CBB
:200CA0000870394901200870FFE7FFE7FFE732480078022812D1FFE735480188491C01801E
:200CC000008834490988884207DDFFE7304900200880294901200870FFE7FFE7264800780C
:200CE000012828D1FFE72C480188491C018000882A49098888421DDDFFE7012041041D4808
:200D000002F0B5FA8003C00F002813D0FFE722490020088018490870214A26211180214A55
:200D2000118017490880154908801F4908801F490880FFE7FFE71E480078012803D1FFE7E7
:200D400001F0F2FCFFE71A484078012803D1FFE701F016FDFFE716488078012804D1FFE7AD
:200D6000144800F0BBFFFFE7FFE780BD0040084000000A4000200A408C0620207E06202092
:200D800082062020B90B00007B062020730620209406202092062020900620208E062020F1
:200DA000860620208A062020800620207C062020780620200000F041FCB40124E4076340BD
:200DC00002E0FCB40124E40708B41D03ED08D60D354356025F007F0D06D12C00344300D0B8
:200DE000AEE001B0FCBC7047A408254307242402FF34A74205D10020190D090501B0FCBC31
:200E00007047002B03D50024A61BAC4125000B03DB08C20D134342024800400D07D11C003E
:200E2000144300D08CE00EBC1000F0BC704701246407234307242402FF34A04205D1002090
:200E4000090D090501B0FCBC7047002903D50024A21A9C412300C11B08D51C002B00250048
:200E60001400320026000024611A3800362925D502B4393949420C00203C03D22F008F40E8
:200E8000374301E03700A740002F01D040210E4302BC20290BD500290ED04C42203420B483
:200EA000A5402C0020BC0D41CE40361904E000292E000D4120390E4192196B411C0014439F
:200EC0003ED00024002B04D5012400218A1A99410B00401E52005B41FBD50121890215002F
:200EE0000D400CD0521800277B4101D3401C0BE00721C90115000D4001D189008A430721BD
:200F000009028A4352005B41801C19DD07210902FF31884209D30EBC0020C90F0902FF3173
:200F2000C900C91D0905F0BC7047190B00050143E40721431805120B104301B0FCBC704728
:200F40000021002001B0FCBC7047704780B58CB00E200821019102F053F859480A90042182
:200F600002F0A2F801990F2002F04AF801990A9802F09AF814200221029102F041F8029978
:200F8000152001F0C5FF192002F0B2F80520069002F0AEF8029802F0ABF81F2002F0A8F83F
:200FA0001E2002F0A5F80023049300930120420403920D20194601F047FE039A049B00938A
:200FC0001220194601F040FE252002F091F8262002F08EF8232002F08BF8222002F088F867
:200FE000362001F0FFFF3A2001F0FCFF2F2001F0F9FF332001F0F6FF039A049B00932120E5
:20100000194601F021FE039A049B00933B20194601F01AFE039A049B00932E20194601F062
:2010200013FE039A049B00933520194601F00CFE039A049B00931320194601F005FE039A2F
:20104000049B00932020194601F0FEFD039A049B00932A20194601F0F7FD1A4807901A491A
:20106000059102F04FF90599079802F01DF806990798890402F06CF8079803214906089190
:2010800001F094FF0798089901F09EFF0A9861214902099102F036F909990A9802F004F8A2
:2010A0000A980A4902F054F80A98112109050B9101F07CFF0A980B9901F086FF0CB080BD5E
:2010C00000200A4000000A40006003900001010080B58EB00D900D99C86808610D990C91D5
:2010E0000868496800F02CFD0C99C8600D98006A01F09CFC0122D20791434D4A4D4B01F061
:2011000079FA002838D0FFE70D988069002101F07BFA002809D0FFE70D980B90C168406938
:2011200000F013FD0B99486125E00D980890C06801F07CFC0246089809920122D20791433C
:201140000A91806901F072FC024609980B460A9901F032FA002809D0FFE70D980790C16866
:20116000406900F0F2FC0799486103E00D9900204861FFE7FFE703E00D9900204861FFE749
:201180000D9840692C4901F067FA002804D0FFE70D9929484861FFE70D984069274901F003
:2011A0003DFA002804D0FFE70D9924484861FFE70D990691C8690190C8680390086A49698F
:2011C00000F016FF039902460198029200F010FF029900F0BAFC06990246039805924A6AEC
:2011E0000492096900F0ACFC0146049800F000FF059900F0AAFC069988600D998868896A39
:2012000001F02AFA002804D0FFE70D99886A8860FFE70D998868C96A01F000FA002804D0C1
:20122000FFE70D99C86A8860FFE70EB080BDC0462D431CEBE2361A3F0000AA430000AAC3DF
:2012400080B586B0049000F09DFD01200390FFE70398022811DCFFE703994948405C0128E1
:2012600006D1FFE703984000801F4649087004E0FFE70398401C0390EAE701200290FFE772
:201280000298022818DCFFE702993D48405C01280DD1FFE702983A4940184078012806D1DA
:2012A000FFE702984000401F3649087004E0FFE70298401C0290E3E703200190FFE70198C9
:2012C000042818DCFFE701992D48405C01280DD1FFE701982A4940184078012806D1FFE76E
:2012E00001984000401F2749087004E0FFE70198401C0190E3E704200090FFE70098052855
:2013000011DCFFE700991E48405C012806D1FFE700984000801F1B49087004E0FFE70098C4
:20132000401C0090EAE704980078012813D1FFE714480078011F15480170027814490A70D6
:2013400000220270805689564018C10F4018400805A908700EE00B4802780B490A700022AB
:201360000270805689564018C10F4018400805A90870FFE7002105A8405606B080BDC04615
:201380006C06202098062020990620209A0620204805202080B582B0032041063F4801F028
:2013A0009BFE3F4901910860112001053D4801F093FE014601983C4A1160C0788007002816
:2013C00013D5FFE701208106344801F05BFF002805D1FFE735490888401E088004E0334998
:2013E0000888401C0880FFE719E02D48C0784007002813D5FFE701204106284801F042FFA6
:20140000002805D1FFE729490888401C088004E026490888401E0880FFE7FFE7FFE722481D
:201420008078C006002813D5FFE7012001061D4801F028FF002805D1FFE71D490888401C1D
:20144000088004E01A490888401E0880FFE719E01548C078C007002813D0FFE701200105F4
:20146000104801F00FFF002805D1FFE710490888401E088004E00E490888401C0880FFE7CD
:20148000FFE7FFE703204106044801F081FD11200105044801F07CFD02B080BD00000A4035
:2014A0003C05202000200A40400520207E06202082062020B0B58AB004460E9809AD2C704F
:2014C00008AC217007A90A7006AA137005AA1070089801AA107007982038087003A9002035
:2014E0000870FFE703A8007806A90978884264DAFFE706A800780C280CD1FFE707A8007809
:201500000C2141432F48401803A90978405C04A908700AE007A8007801012948401803A9D5
:201520000978405C04A90870FFE702A900200870FFE702A80078072839DCFFE704A80078EA
:201540000006002809D5FFE709A8007808A9097805AA127800F0BCFC0AE009A8007808A999
:20156000097805AA127853425A4100F0B1FCFFE70498400004A908700898411C08A80170DF
:20158000007801A90978401A06A90978884208D1FFE7019808A908700998401C09A90870AC
:2015A00005E0FFE70298401C02A90870C1E7FFE70398401C03A9087094E70AB0B0BDC046F6
:2015C00040350000303B000080B58EB00D900C910D9800281DD5FFE701200A9041033B4857
:2015E0000B9001F09DFD0A990B98890301F076FE0D98012803DBFFE70D98099003E00D9836
:2016000040420990FFE709993148002201F03AFF1CE00120079081032C48089001F080FDB0
:2016200007990898490301F059FE0D98012803DBFFE70D98069003E00D9840420690FFE783
:2016400006992348002201F01DFFFFE70C9800281DD5FFE70120049041041C48059001F0E3
:201660005FFD04990598090401F038FE0C98012803DBFFE70C98039003E00C98404203903C
:20168000FFE703991248012201F0FCFE1CE00120019001040D48029001F042FD0199029862
:2016A000490401F01BFE0C98012803DBFFE70C98009003E00C9840420090FFE700990448AA
:2016C000012201F0DFFEFFE70EB080BD00000A4000208640B0B5364A80184A6842600A78B5
:2016E000222A56D8930001A4E3589F468917000093170000891700009317000093170000DA
:20170000931700009317000093170000931700009317000093170000931700009317000079
:2017200093170000931700009317000079170000931700007917000093170000931700008D
:20174000931700009317000093170000931700009317000093170000931700009317000039
:20176000931700009317000093170000791700009317000079170000036803242407A343FE
:20178000012464071B1903E0036803242407A34303600B69C360CB68C46A064D2540064C9A
:2017A0001C402B19C362097A11430160B0BDC046041800008888FDFF7777020080B582B03A
:2017C00001F0D2FD782001F073FA01F0D7FDAE200021019100F046FE0199D52000F042FE1A
:2017E0000199502000F03EFE0199A82000F03AFE01993F2000F036FE0199D32000F032FE5F
:201800000199084600F02EFE0199402000F02AFE01998D2000F026FE0199142000F022FE79
:201820000199202000F01EFE0199022000F01AFE0199A12000F016FE0199C02000F012FE25
:201840000199DA2000F00EFE0199122000F00AFE0199812000F006FE0199EF2000F002FE6C
:201860000199D92000F0FEFD0199F12000F0FAFD0199DB2000F0F6FD0199302000F0F2FD17
:201880000199A42000F0EEFD0199A62000F0EAFD0199AF2000F0E6FD00F0E8FE02B080BDD7
:2018A000FCB50C005C40E40FE40710B4DD02540D2543D6025F007F0D60D00124E40725431A
:2018C00007242402FF34A74250D0CB02440D2343C2024800400D51D00124E40723430724DC
:2018E0002402FF34A04241D0C01901B41800290001F054F90F0001B41800310001F04EF94A
:2019000003000C001000310001F048F906001000290001F043F905007618002202BC01BCA9
:2019200055415141A419554151418024A4005B195141FF18514100D564003F19514102D4AA
:201940007F00494100E0401C03242402FF34001B14DD2419A04209D80305F80A4C052043F8
:201960004900090B194310BC2143FCBD0020FF21C900C91D090510BC2143FCBD002100209E
:2019800001B0FCBD80B586B005A90020039008703348802101F081FC01460398C909002932
:2019A000049003D0FFE701200490FFE70498C00700281ED1FFE7142001F07AF9FFE72848F1
:2019C000802101F06AFCC10900200029029003D0FFE701200290FFE70298C007002801D1BD
:2019E000FFE7ECE7142001F063F905A901200870FFE7012001021A4801F04FFC010A002093
:201A00000029019003D0FFE701200190FFE70198C00700281FD1FFE7142001F049F9FFE710
:201A2000012001020E4801F038FC010A00200029009003D0FFE701200090FFE70098C00774
:201A4000002801D1FFE7EBE7142001F031F905A902200870FFE705A8007806B080BDC04639
:201A600000000A40F0B584B03049314A0125AC0316682B0203939E4316600E68264205D12E
:201A80000E68264202D10E682642F6D06C02467E9769AF432E40BD1995612025455DD6696D
:201AA0000327BE433D407519D561224D2E680727374005262E60466A336813627368536207
:201AC0002F60C3695B065B0CD5697F263602B543EB18D361E8C800970768019747680297A3
:201AE0001B071B0B2D03ADB2ED1833071B0D007A009E35431D43019B1D43029B1D43054377
:201B000090690D4B03400D482840C01890611068039B184310600868204205D10868204250
:201B200002D108682042F6D004B0F0BD04020B4008010B40001340408D00F0FF72FF0F00A5
:201B4000FCB40127FF07794002E0FCB40127FF070C024D002D0E03D1002C52D1FCBC704706
:201B60003C43FF2D50D0A408002900D56442020243001B0E04D1002A43D10800FCBC704750
:201B80003A43FF2B41D09208002800D552425E1B04D5170022003C0076422B00192E06D596
:201BA00027003741D2191C27F71B7F42BC40002A27D002D55242012700E00027013B520040
:201BC000FCD51500802635400FD01500202635402C43803208D21500402635402C4304D126
:201BE00001263602B24300E05B1C5200023308DDFF2B0BD2500ADB051843FF073843FCBCF9
:201C000070470020FCBC70470800C70FFF07FF20C0053843FCBC7047F0B5294A8218294BA6
:201C2000C0180B79202B0DD0274C002B1CD10D686D1E4560C56E25408835C566064670367E
:201C400088251CE00C68641E4460C46E1E4D2C401E4EA419C466046F2C40A41904671C4C76
:201C600001256D0706460AE00525ED010E6876084660C66E26407619C666064670363768FC
:201C800027402F433760C46A124D2C40C462046B2C4004630024C4640465C46F8F25ED43A7
:201CA0002C40C46714682C401460497919430268094B1340BD220A40D118891C0160F0BD3D
:201CC000841800000418000024493E0001040000FFFFFFCF8888FDFF4000FFCF10B586B0BB
:201CE000059001F095FA00F0E1FE22490091486001F09AFA00F0DAFE1F490191486001F07C
:201D0000BFF800F0D3FE1D490291486001F0CAF800F0CCFE01460098194A03925160FFF7BF
:201D2000D7F90198FFF7D4F90098019A0299039B84680C6092681A60059A00F0C5FD019855
:201D40000399059A00F0C0FD0298FFF7C1F90398FFF7BEF90298806800F03EFF0146039878
:201D60000491806800F038FF01460498FFF72CFC06B010BD4C0520207C0520200C06202097
:201D80003C06202080B584B00120019001032448029001F061FA01460198C904C90F214A68
:201DA0000392117001042048009001F055FA0199039B02460098D203D20F5A70490401F0FA
:201DC0004BFA0199039B024602989203D20F9A70890501F041FA0199039B024602985202FC
:201DE000D20FDA70090601F037FA0199039B02460298D201D20F1A71C90601F02DFA0199AD
:201E0000039B024602981201D20F5A71490201F023FA03998005C00F887104B080BDC0464A
:201E200000000A406C06202000200A40F0B58B4200D1824204D90B0002000021002040E0EA
:201E4000002B00D1002A0CD10B00020000210020002B00D1002A01D0C943C04300F037F80C
:201E60002FE01C0015000B0002000CB4002126002F00FF19764102D2491C4029F9D1002084
:201E80001E001700FF19764102D2401C4028F9D10E1A21002800320001F06AF80C000500D5
:201EA0000CBC00200021A34200D1AA4201D3521BA341404149416D08E7073D436408761E64
:201EC000F1D5059F002F01D03A607B60F0BD704786B0034605A8037004AB197003A90A70C2
:201EE0006A460021117000787F2805DCFFE704A80078402801DBFFE72DE004A90878C20858
:201F00000720821A02AB1A700A78024001A90A700978411A012088406946087003A80078D0
:201F200000280CD0FFE7009B05A80078C1000B48411802A80278885C184388540BE0009BC5
:201F400005A80078C1000548411802A80278885C98438854FFE706B07047C046000020209D
:201F600080B586B0059005981E49884203D3FFE71D480590FFE705995020484305900020A9
:201F80000090049001F0B4FA014600980391029001A90870FFE701F0ABFA02900298039913
:201FA000884204D9FFE701A901200870FFE701A80078002807D0FFE703980299401A0B4981
:201FC0004018049004E003980299401A0490FFE704980599884201D3FFE700E0DBE706B011
:201FE00080BDC0463433030033330300FFFFFF00FCB40127FF0706004E4001D4002600E081
:202000003E00020243001B0E30D03A43FF2B30D00C024D002D0E29D03C43FF2D29D05B19C4
:202020004240504042404C4061404C4000B500F0B5FD20BCAE464240504042404C4061406B
:202040004C4025001400002C01D46400013B803401D3013364087E3B08DDFF2B09D2BC4350
:20206000200ADB0518433043FCBC70470020FCBC7047FF20C0053043FCBC704770B582B06D
:20208000024601A80270009100214056002816D4FFE7002401A908570322D3431840174A7C
:2020A000805809578C07E50EFF24AC40A043009CA401E4B2AC402043194088501AE001A975
:2020C00008780F24204008380322D34318400A4A8058002549578D07EE0EFF25B540A84395
:2020E000009DAD01EDB2B54028432140083919408850FFE702B070BD1CED00E000E400E051
:2021000070B582B04A790B79002A25D0184A202B02D00524E40100E0164C8218002B00D19D
:202120008824156C144E35402D191564556C35402C1954641468114D2C40146054682C40C7
:202140005460002414625462146D8F25ED432C401465546D2C4054650A6800926A46137113
:20216000897951711146FFF757FD02B070BDC046381800000104000024493E008888FDFF09
:2021800080B584B01B491C48039000F07FFF03981A49FFF7B5FF0398002301930093194621
:2021A0001A4601F005F8019A0398114600F060FF019A0398114601F065F9019B03980121C0
:2021C0000291009119461A4600F0F2FF0199029A039800F04DFF0199029A039801F052F921
:2021E000039801F0ADF80398032101F0B3F804B080BDC046B1400000002086401441000030
:2022000080B584B003A900200870FFE703A8007807282FDCFFE70398B030C0B20021019148
:2022200000F020F90199084600F01CF90199102000F018F9019802A90870FFE702A8007819
:202240007F2811DCFFE702A80078C1000A48401803A90978405C012100F004F9FFE702981F
:20226000401C02A90870E9E7FFE70398401C03A90870CBE704B080BD00002020F8B5451C1D
:2022800000780023082B32D02F78C2070CD16A780F241440E41C122C0BD102242E57F4B24D
:2022A000002E08D4EE1C0EE06D1C4A1C0F7011461AE0AE1C08E02E1DED7800957F252C4056
:2022C000009DED012C1912343D0112095219094DAA420ED0D243002C05D08D5C4F1C0D701D
:2022E000641E3946F7E7354640085B1CCAE72846C5E7F8BDFF0F000080B586B005AB187094
:2023000004A801700392FFE70398007800282ED0FFE705A800787B2808DBFFE705A90020A7
:2023200008700498103004A90870FFE704A800783B2808DBFFE705A90020087004A9087083
:2023400000F094F9FFE705A80290007804A90978039A1278012300930C23FFF7ABF80299F4
:202360000598083008700398401C0390CCE706B080BD0000FEB502930F46194D0024E14395
:20238000184E00973740019043422B46BB4101D20C4623E0084602990E405342B54101D289
:2023A00004461BE0134601990B433E431E43029D009E13D02B46334004D401998B1A334621
:2023C000AB4103E00199531A2B46B341044605DB51406E400E43701E864134462046FEBD18
:2023E0000000F07FFFFFFF7F00487047740620200CB41B4B4A00D21A1BD2000D0A03104383
:2024000001221202801802D3400812038918400A002902D50122D20710434900490D382288
:202420001201891A0CD4FF290DD2C90508430CBC7047DB431A40024305D0D8430CBC70473B
:2024400000200CBC7047C90FC907FF20C00508430CBC7047C046C046C046C046C046C04663
:202460000000E0FF80B584B003AA107002A801700078002803D0FFE700F094FF02E000F01E
:2024800087FFFFE701A900200870FFE701A8007807281ADCFFE700F08FFF03A800780006D5
:2024A000002803D5FFE700F0A5FF02E000F098FFFFE700F08BFF0398400003A90870FFE7F4
:2024C0000198401C01A90870E0E700F06BFF04B080BD000080B586B01348019000F014FE7A
:2024E0001248029000F010FE1148039000F054FE1048049000F050FE0F48059000F07CFE44
:20250000019800F0DDFD029800F0DAFD039800F037FE049800F034FE059800F061FE10205D
:2025200000F0F2FF06B080BD00000A4000200A40002086400040084000801040F8B50446DE
:20254000164F174D0E462E400120009464423C46B4411AD31D405442AF4116D31046009C73
:2025600020433543054311D00020C0431C460C400ED4009CA41A0C469C4106DB0098504012
:2025800059400143481E81410846F8BD0020F8BD009C141B1C468C41F0DAF6E70000F07F4E
:2025A000FFFFFF7F10B5FFF7C9FF002801D0002010BD012010BDC04610B5FFF7BFFF0028A1
:2025C00001DB002010BD012010BDC04610B5FFF7B5FF002801DD002010BD012010BDC046E8
:2025E00010B5FFF7C7FE002801DA002010BD012010BDC04610B5FFF7BDFE002801DC0020DC
:2026000010BD012010BD000010B500F0A9FA002801D0002010BD012010BDC04610B500F018
:202620009FFA002801DB002010BD012010BDC04610B500F095FA002801DD002010BD0120C4
:2026400010BDC04610B500F04FFA002801DA002010BD012010BDC04610B500F045FA0028A9
:2026600001DC002010BD012010BD000080B582B001A900200870FFE701A8007807281EDCC9
:20268000FFE7694600200870FFE7684600787F280FDCFFE768460078C1000B48411801A84D
:2026A000027800208854FFE70098401C69460870EBE7FFE70198401C01A90870DCE7FFF71B
:2026C0009FFD02B080BDC0460000202080B582B012491348019000F0AAFE0198114900F000
:2026E0003FF90198002100F033FC019815212D2200F09EF8019800F067FD0198702100F01E
:202700006FFB0198022100F07FFB019800F0DBFD019800F0CDFD02B080BDC046AE3F000093
:2027200000801040A43F000080B584B000F070FD00F0BCF910490191486000F075FD00F096
:20274000B5F9014601980D4A02925160FEF7C0FC0298FEF7BDFC0198806800F03DFA014667
:2027600002980391806800F037FA01460398FEF72BFF04B080BDC046AC052020DC05202018
:2027800080B584B000F07CFB00F090F910490191486000F087FB00F089F9014601980D4A42
:2027A00002925160FEF794FC0298FEF791FC0198806800F011FA014602980391806800F06A
:2027C0000BFA01460398FEF7FFFE04B080BDC0460C0620203C06202080B582B001900198C4
:2027E000002101700A4801600A4801600A4801800A4801800A4801800A4801800A480180C2
:202800000A4801800846FEF7DFFE02B080BDC0460C0620203C0620207E0620208206202070
:202820007C06202080062020440520204605202080B584B003900291019203980B49401893
:2028400002990B4A00F0A4FA03980A49401801993F2200F09DFA0399074A881889580122A1
:20286000114000F095FA04B080BDC04610110000FFFF0000141100000411000080B582B0D1
:202880000020019000F070FC01200090400200F04FFB019800F0C2FB00F0E4FD00F03CFDBE
:2028A0000848FFF7DFF8102000F0C6FB00F03EFD019800F079F800980199FFF7DFFB02B041
:2028C00080BDC046B440000080B584B0039002910192039880680199FFF7BEFE002804D0D4
:2028E000FFE7019802990860FFE70398806801990122D2075140FFF791FE002807D0FFE75C
:2029000001980121C907484002990860FFE704B080BD00000CB54A00520D03231B02FF33EB
:20292000D21A13D31F239A1A12D98E46C9020123DB071943D1400B2A02D21532D04001432E
:202940007346002B00D5494208000CBD00200CBD0B000120C007002B00D401380CBD000085
:2029600070B511221302C218C4580125AC43C4500C888D7825438C882C43C558084E2E4066
:20298000084D2540AC19C4508879CB790343087A184351687E23994318400818506070BDB1
:2029A000E798FDFF1867000010B50E490E4A01235C0590600868204205D10868204202D1E7
:2029C00008682042F6D010681B04034313600868C00605D40868C00602D40868C006F6D5F3
:2029E00010BDC04604020B4004010B401CB50A0017D000230124E407A04200D204009442E0
:202A000001D95200FBE790425B41904200D3801A914201D25208F6E71900020008001100EA
:202A20001CBD01000020FEF790FA1CBD08B443001B0E0FD0FF2B11D00721C9015B18C10FFD
:202A4000C9020B43010048074902090B1B05194308BC70470021002008BC704701004002B8
:202A6000C90DC900C91D090508BC704710B50E4902788B185B78401CDB06F9D400212D2ABA
:202A800004D02B2A02D0401E134600E00378303B092B04D80A244C431919401CF6E72D2A2F
:202AA00000D14942084610BDB03F000006B49E22002802D404D106BC7047414204D400E0AF
:202AC0000100013A4900FCD5803101D3013200E04900490AD2051143002802D50122D20746
:202AE0001143080006BC704740B542004B005E08164301D006004E4000D4D01A04D20120A6
:202B0000C90F06D1404204E003D90120C90F00D04042FF263606B24200D8B34201D901205C
:202B2000404240BD70B50A480A4C84420CD00A4D0A4EB54208D02A686968501C127892003E
:202B4000A25890470835F4E700BF00BF70BDC04680410000744100008841000098410000C3
:202B600040B542004B005E08164301D006004E4000D4D01A04D20120C90F06D1404204E0E5
:202B800003D90120C90F00D04042FF263606B24200D8B34200D9012040BD0000FCB4020C37
:202BA0000B0CFF242402FF34204021400C00444315005D4306005E430F005743320C3B0CA4
:202BC000A818C01832043B040025A1186841C9186841FCBC7047000006B54100090E7F399D
:202BE0000DD41F22511A0CD9864600020122D2071043C8407246002A00D5404206BD002022
:202C000006BD02000120C007002A00D4401E06BD82B0F8B5069207930291019006A9039170
:202C200007480090074B02A801AAFDF749FA019900220A7004B080BC02BC02B00847C046EC
:202C4000413200001335000010B584B0069C0390029101920093029801990843009908436F
:202C6000069908430349084303998900024A885004B010BD810004000480424080B582B017
:202C800008490948019000F001FA01980749FEF721FD0198012100F0DDF9019800F050FBC5
:202CA00002B080BD2741000000400840DC40000080B582B0019000200090FFE700980749A3
:202CC000884208DCFFE70198FFF74AF9FFE70098401C0090F2E702B080BDC046E70300006C
:202CE00080B5FFF7F7FBFEF731F9FFF7C7FDFFF747FAFFF7C3FFFFF7E9FC00F0CBFB024913
:202D0000B8220020885480BD0004202081B001466846017000214056002809D4FFE7684675
:202D200001781F2001400120884002490860FFE701B0704780E200E081B0014668460170D7
:202D400000214056002809D4FFE7684601781F2001400120884002490860FFE701B0704740
:202D600000E100E004B40422002802D1002104BC704701D50832404212021F320100521EB9
:202D80004900FCD30805090B1205114304BC704784B0039002910192039800680090009800
:202DA00001998843009000980299019A114008430399086004B0704781B000900549042012
:202DC00008600098401E0449086004490020086001B0704710E000E014E000E018E000E027
:202DE00080B584B0019101460198039102A908700398044A801809787022FFF7C9FF04B03B
:202E000080BDC0460C11000080B584B0019101460198039102A908700398044A80180978BE
:202E20000722FFF7B5FF04B080BDC0460C11000083B00290019100920299012048700198B5
:202E40000349086000980349086003B07047C0460C0620203C062020084880F3088800BF1C
:202E600000BF00F068FB002801D0FFF75BFE0020FDF75AFD012000F055FBC0460080202066
:202E800005490888054A1388C31A05480380098811800021405E70477E0620207C0620209F
:202EA0004405202005490888054A1388C31A05480380098811800021405E704782062020B4
:202EC000800620204605202030B514004C4325001C0044436419050010002900FFF75EFE44
:202EE000001904000D002100280030BDB0B504460020002B08D0D2B20D782570954204D057
:202F0000641C491C5B1EF7D1B0BD601CB0BD000082B001900091009803490843019989008F
:202F2000024A885002B07047800004000480424080B582B0014601A8018001880F200202E6
:202F40000248FFF725FF02B080BDC04604010B4080B582B001900091019811210902401811
:202F600000990322D203FFF713FF02B080BD000018B520239B1A04D8010000205B4299408F
:202F800004E004009140DC402143904018BD000082B001900091009B0199034A8858184342
:202FA000885002B07047C0464810000082B001900091009B0199034A88581843885002B0D7
:202FC0007047C0464810000082B001900091009B0199034A88581843885002B07047C04684
:202FE0002810000081B0009000988100024A0348885001B07047C046048042408100040057
:2030000082B00190009100988021084301998900014A885002B070470480424080B582B0BC
:20302000014601A80170017802480322FFF7B0FE02B080BD00010B4080B582B0014601A811
:203040000170017802483022FFF7A2FE02B080BD04010B4082B001900091009B0199034A3F
:2030600088581843885002B07047C0462810000010B592008018044A83580724A404A343C5
:2030800021405918815010BD3018000010B50122120383180C789C604B7883508978014A7E
:2030A000815010BD0C11000082B00190009100980199024A885002B07047C046D01200005A
:2030C00081B0009000990120C2020248885001B07047C0460100002682B00190009101980D
:2030E000024940580099084002B070473810000081B0009000988100024A8120885001B00B
:203100007047C0460480424081B000900099024A0248885001B0704704080000030000B1FC
:2031200082B00190009100980199024A885002B07047C0469012000082B0019000910098E8
:203140000199024A885002B07047C0469012000082B001900091009B01999D204201885837
:203160001843885002B0704781B001466846017000780249086001B07047C04608030B402D
:2031800081B0009000990120C2020248885001B07047C0460100002681B000900099024A93
:2031A0000248885001B0704704080000030000B110B5029CA400001911431943014A8150D9
:2031C00010BDC0465018000081B00090009911200202885801235B041843885001B0704727
:2031E00081B0009000990120C2020248885001B07047C0460100002681B000900099024A33
:203200000248885001B0704704080000030000B181B004480188684601800021405E01B0BF
:203220007047C0467E06202081B004480188684601800021405E01B07047C04682062020E3
:20324000B0B514460D460146286800F067F92868001928602046B0BD82B001900091019844
:203260002721C90140580099084002B0704782B00190009101982721C901405800990840E2
:2032800002B0704782B00190009101982721C90140580099084002B0704782B00190009190
:2032A00001982721C90140580099084002B0704781B0009000991120020288580123184393
:2032C000885001B0704781B00090009911200202885804231843885001B0704782B00190BA
:2032E00000910098019995225201885002B0704782B0019000910098019995225201885058
:2033000002B0704782B0019000910098019995225201885002B07047034908680122120280
:20332000904308607047C04608010B400349086801221203104308607047C04604010B4085
:2033400081B000900099024A0120885001B070470811000082B00190009100980199112294
:203360001202885002B0704780B5012081030248FFF7BEFF80BDC04600200A4080B501201E
:2033800081030248FFF7D8FE80BDC04600200A4080B50120C1030248FFF7AAFF80BDC046A0
:2033A00000200A4080B50120C1030248FFF7C4FE80BDC04600200A4080B501200107024832
:2033C000FFF796FF80BDC04600000A4080B5012001070248FFF7B0FE80BDC04600000A40FC
:2033E00080B50120C1070248FFF782FF80BDC04600000A4080B50120C1070248FFF79CFE69
:2034000080BDC04600000A4040B584B002AE0096FEF70CFD029A039B04B040BD81B0009006
:203420000098812149014058C0B201B0704710B50122120383180C789C604978815010BD1F
:2034400010B500239A4203D0CC5CC4545B1CF9E710BD80B50B4603214258C11D184600F001
:203460005DF880BD02490868012290430860704708010B4002490868052210430860704742
:2034800010E000E092008018014A81507047C0461018000080B501200006FFF78DFCFFF760
:2034A000E9FF80BD00214258091D002AFBD1081F8010704780B50A4603214158104600F01A
:2034C0001DF880BD0B4611461A4680B500F008F880BD0021425C491C002AFBD1481E7047F9
:2034E00000239A4202D0C1545B1CFAE770470000014800687047C04618E000E00A46002120
:2035000080B5FFF7EDFF80BD811E091F00BFFCD270470A68531C0B601070704780B5FFF79E
:203520008FFF80BD00F003F8FEE7FFE7FEE700BF704791E4704701207047000000000000AB
:20354000000000000000000000000000000000000000000000001FCC000C00000000000074
:2035600000000800300060000800300060000000022003FC1E20022003FC1E20022000003B
:2035800000000E1811043FFF10840C78000000000F0010840F3800C007781884007800005D
:2035A00000780F8410C411240E9800E4008400080800680070000000000000000000000001
:2035C00000000000000007E01818200440020000000040022004181807E0000000000000F1
:2035E0000240024001800FF001800240024000000080008000800FF80080008000800000BB
:203600000001000D000E00000000000000000000000000800080008000800080008000800E
:203620000000000C000C000000000000000000000000000600180060018006001800200035
:20364000000007F0080810041004080807F000000000080408041FFC0004000400000000F9
:2036600000000E0C10141024104411840E0C000000000C1810041104110412880C7000005D
:20368000000000E00320042408241FFC0024000000001F9810841104110410881070000007
:2036A000000007F008881104110418880070000000001C00100010FC13001C0010000000D2
:2036C00000000E3811441084108411440E38000000000700088C10441044088807F00000C2
:2036E000000000000000030C030C00000000000000000000000101060000000000000000A4
:203700000000008001400220041008081004000002200220022002200220022002200000A0
:203720000000100408080410022001400080000000000E001200100C106C10800F00000017
:2037400003E00C1813E4142417C4082807D000000004003C03C41C40074000E4001C0004A3
:2037600010041FFC1104110411040E880070000003E00C1810041004100410081C1000004E
:2037800010041FFC100410041004080807F0000010041FFC1104110417C41004081800004F
:2037A00010041FFC1104110017C010000800000003E00C181004100410441C78004000006E
:2037C00010041FFC10840080008010841FFC10040000100410041FFC1004100400000000F8
:2037E00000030001100110011FFE10001000000010041FFC110403801464181C10040000DF
:2038000010041FFC1004000400040004000C000010041FFC1F0000FC1F001FFC10040000B5
:2038200010041FFC0C04030000E010181FFC100007F00808100410041004080807F00000C9
:2038400010041FFC10841080108010800F00000007F0081810241024101C080A07F2000030
:2038600010041FFC1104110011C011300E0C000400000E1C11041084108410441C380000B4
:203880001800100010041FFC100410001800000010001FF810040004000410041FF8100017
:2038A00010001E0011E0001C007013801C0010001FC0103C00E01F0000E0103C1FC0000069
:2038C0001004180C163401C001C01634180C100410001C00130400FC13041C0010000000E0
:2038E0000804101C1064108413041C04101800000000000000007FFE4002400240020000E6
:20390000000030000C0003800060001C0003000000004002400240027FFE00000000000026
:2039200000000000200040004000400020000000000100010001000100010001000100017F
:203940000000400040002000000000000000000000000098012401440144014400FC00043B
:2039600010001FFC0088010401040088007000000000007000880104010401040088000003
:203980000000007000880104010411081FFC0004000000F8014401440144014400C8000019
:2039A0000000010401040FFC1104110411001800000000D601290129012901C9010600007A
:2039C00010041FFC008401000100010400FC000400000104190419FC0004000400000000EE
:2039E0000000000300010101190119FE0000000010041FFC0024004001B4010C0104000036
:203A00000000100410041FFC0004000400000000010401FC0104010001FC0104010000FC54
:203A2000010401FC008401000100010400FC0004000000F8010401040104010400F80000F5
:203A4000010101FF00850104010400880070000000000070008801040104010501FF0001D4
:203A60000104010401FC00840104010001800000000000CC0124012401240124019800003B
:203A800000000100010007F80104010400000000010001F8000400040004010801FC00040B
:203AA000010001800170000C001001600180010001F0010C003001C00030010C01F00100F6
:203AC00000000104018C00740170018C01040000010101810171000E0018016001800100DE
:203AE00000000184010C013401440184010C0000000000000000000001003EFC4002400269
:203B00000000000000000000FFFF0000000000000000400240023EFC0100000000000000E8
:203B2000000060008000800040004000200020000000000000000000000000000000000065
:203B40003F4000000000000000003000400030004000000009000BC03D000BC03D000900E4
:203B600018C024407FE0224031800000180024C01B000D803240018003801C4027401C801E
:203B8000074000401000600000000000000000000000000000001F8020404020000040206F
:203BA00020401F8000000000090006001F80060009000000040004003F800400040000007A
:203BC000001000600000000000000000040004000400040004000000000000400000000021
:203BE00000000000002001C006003800400000001F802040204020401F80000000001040B8
:203C00003FC000400000000018C02140224024401840000010802040244024401B800000BB
:203C200002000D0011003FC0014000003C80244024402440238000001F80244024403440BE
:203C4000038000003000200027C03800200000001B802440244024401B8000001C0022C0F2
:203C6000224022401F80000000000000084000000000000000000000046000000000000035
:203C8000000004000A00110020804040090009000900090009000000000040402080110087
:203CA0000A0004001800200023402400180000001F802040274029401F400000004007C0EA
:203CC00039000F0001C0004020403FC0244024401B8000001F80204020402040308000006A
:203CE00020403FC0204020401F80000020403FC024402E4030C0000020403FC024402E00F4
:203D0000300000000F001080204022403380020020403FC0040004003FC0204020402040D7
:203D20003FC02040204000000060202020203FC02000200020403FC024400B0030C0204087
:203D400020403FC020400040004000C03FC03C0003C03C003FC0000020403FC00C4023005D
:203D60003FC020001F802040204020401F80000020403FC024402400180000001F802140C7
:203D8000214020E01FA0000020403FC02440260019C0004018C0244024402240318000004E
:203DA000300020403FC020403000000020003F80004000403F80200020003E0001C0070080
:203DC00038002000380007C03C0007C038000000204039C0060039C0204000002000384001
:203DE00007C0384020000000304021C02640384020C00000000000007FE040204020000036
:203E0000000070000C000380004000000000402040207FE0000000000000200040002000C4
:203E2000000000000010001000100010001000100000000040000000000000000000028060
:203E40000540054003C0004020003FC004400440038000000000038004400440064000005A
:203E600000000380044024403FC00040000003800540054003400000000004401FC0244001
:203E800024402000000002E0055005500650042020403FC00440040003C0004000000440AA
:203EA00027C000400000000000100010041027E00000000020403FC00140070004C00440F1
:203EC000204020403FC000400040000007C0040007C0040003C00000044007C004400400F7
:203EE00003C00040000003800440044003800000041007F004500440038000000000038088
:203F00000440045007F00010044007C00240040004000000000006400540054004C0000019
:203F2000000004001F80044000400000040007800040044007C000400400070004C00180F4
:203F400006000400060001C0070001C006000000044006C0010006C0044000000410071082
:203F600004E00180060004000000044005C00640044000000000000004007BE04020000080
:203F8000000000000000FFF000000000000040207BE0040000000000400080004000200053
:203FA000200040000000180000000030000008000080808080808080808090909090908081
:203FC000808080808080808080808080808080808018040404040404040404040404040411
:203FE0000402020202020202020202040404040404044343434343434141414141414141F3
:204000004141414141414141414141410404040404042323232323232121212121212121A2
:20402000212121212121212121212121040404048000000000000000000000000000000064
:20404000000000000000000000000000000000000000000000000000000000000000000060
:20406000000000000000000000000000000000000000000000000000000000000000000040
:20408000000000000000000000000000000000000000000000000000000000000000000020
:2040A000000000000000000000000000000000000008004F010000000000000000000000A8
:2040C0004000000000000000000000000200000004000000010000002C00C4410200000066
:2040E0003F1F000001000000000000000000000030313233343536373839414243444546BF
:204100000030313233343536373839616263646566000000E803000020000100252D366445
:104120006400252D3664000800C700000000000070
:20413000007D00000F0C3F6F12833A02305F4000007A440030C402FF3AEFEC51484002FFE7
:2041500048A0419A3F99E9409A99390BB00E51E602FF34DC05001313750300140214200B16
:204170001466FFF07D22000053340000B5340000020000004A050000304100004C05202064
:08419000804100000000202026
:00000001FF
