:2000000000802020872300007F2300007F2300000000000000000000000000000000000032
:200020000000000000000000000000007F23000000000000000000007F2300007F230000DA
:200040007F230000290900007F2300007F2300007F2300007F2300007F2300007F23000000
:20006000000000007F2300007F23000000000000000000007F2300007F2300007F23000056
:20008000711900007F2300007F2300007F2300007F2300007F2300000000000000000000AC
:2000A0007F2300007F23000000000000000000007F230000000000007F2300007F23000016
:2000C000F0B5FFB08EB0049306920646929802900025E84305908C913468204602F01FF949
:2000E00021188B9503918C4200D3B5E00020879087A908738890059889902F46049D20787F
:20010000002800D1A9E0252805D0641C34600699A8477F1CF3E78B97601C306087AC20465D
:20012000314600F0A1F88CAA2046314600F0B9F831680A781346683B0120C341092B2BD898
:200140007B441B795B009F4404130A272727162727194B78879A682B19D1430204E04B78AE
:20016000879A6C2B10D103021A438792891C12E0879AC30204E0879A430301E0879A03039B
:2001800013438793491C06E0491C402301E0491C20231A4387920A784C1C346087A90A73B2
:2001A000732A1ED06E2A28D187992E4A1140202947D040293BD04203914238D0420291422F
:2001C0003AD0C202914205D0020391422FD0000281422CD1F8178C9904C98C9117605060CB
:2001E00033E087A80078400619D4009587A88CAA8BAB069900F015F927E007AD87A98CAA24
:20020000284600F065F9024628460699029B9847411C059D00D0C5198B95039917E000955C
:2002200087A88CAA8BAB069900F097F80DE08C9802C88C900F6008E08C9802C88C900F702E
:2002400003E08C9802C88C900F8003998B9D681C00D048E7059F00E02F4638467FB00EB077
:20026000F0BDC046603F000010B50A681378302B0FD0232B07D02B2B09D02D2B05D0202B64
:200280000ED1042306E0082304E0012302E0022300E0102304681C430460521C0A60E5E752
:2002A00010BDFEB516460D460446086802782A2A10D13068011D316000686060002805D535
:2002C0004042606020680121014321602868471C2F6017E00021303A092A08D84218531C8D
:2002E0002B60435C6F467B545278491CF3E76A460023535412784718002A03D0684601F048
:20030000C3FB606038782E2826D1781C286079782A2908D13068011D31600068A0602868EA
:20032000401C2860FEBD00203039092908D839188A1C2A604A786B461A548978401CF3E7EA
:200340006A46002111541078002804D0684601F09BFBA060FEBDA160FEBDF0B587B01E46F7
:200360000C9F13681C1D14601D68002D3BD0049106908468002C04D4284601F0B9FF8442F5
:2003800003D3284601F0B4FF044606984068A042039000DC204601463068019140180296CD
:2003A000306005940398A0420EDD06980078C0070AD1059801990E1A0024B44204DA20205D
:2003C0000499B847641CF8E70026049C069805998E420BDA2868010A19D12D1DC0B22146C3
:2003E000B847761CF2E70020B84718E00599039A8A4214DD0078C00711D00198451A002448
:20040000AC420CDA20200499B847641CF8E70020C0430299086001F0A7FF5821016007B07F
:20042000F0BDF0B585B00C4606460A9D1068011D116000680490002844D00393B768002FCD
:2004400004D4049801F06BFF874203D3049801F066FF074602967268BA42114600DC3946CF
:20046000039B18680091401818600192BA420FDD02980078C0070BD10098C01B03900026A1
:200480000398864204DA20202146A847761CF7E70026BE4205DA0498805D2146A847761CAF
:2004A000F7E70198B84210DD02980078C0070CD00098C61B0027B74207DA20202146A84719
:2004C0007F1CF8E700202146A84705B0F0BDC046F0B589B005920E4604467F208000271853
:2004E0004868039000250795FF210491FE3120222046019201F00CFF3046089702977D7042
:20050000367B31466339152906903DD801228A40604B1A42069822D007A908AA059B00F0B8
:20052000BDF806980025067B012731466F390929059504D801228A4057490A423FD1582E64
:200540003DD0016802230B40079A002A27D008994A1E08922D220A705F425F412FE000290E
:2005600012D1059B1A68111D19601268D1B24D424D410499FC316118089102990A7002685A
:2005800002218A430260CEE7252E02D0582EC3D0CAE70020607025202070012078E0002BFC
:2005A00007D149070BD5089A511E08910199117005E0089A511E08912B211170002703994F
:2005C00003976518089B0178C907264608D10299491CC91A42689142264601DC691A4E1C3D
:2005E000591C04984300002730463A4601F0C6FB08900599002903D0411C0891077000E059
:200600000146A94206D8481E691A491C202201F07FFE2F7006980078C00606D4311B2022E9
:20062000204601F075FE059D2EE0A642059D2BD0311B302720463A4601F06AFE069B079899
:200640004142414103980140012905D11878400702D43046214604E03078611C2070701C0A
:2006600037701A7B412A0CD0582A05D0612A08D0782A01D0702A07D11B781B0701D4612A43
:2006800002D142784A704770204601F048FE401909B0F0BD4230240043020000F8B514461E
:2006A0000F4605468068002804D4286810218843286001E00120A860287B1026582808D063
:2006C000782806D0702804D06F2801D1082600E00A262846194600F055F8AA68002A09D171
:2006E00002460A4306D12878000749D52B7B0020024612E02B7B642B03D1642300290BD530
:2007000004E0692B08D1002906D5692301223A60002240428A4100E00A4600941146324639
:2007200000F0B0F8A968884206DA401C21684A1E226030220A70F5E7287B582803D0782859
:2007400001D070280FD1297809070CD5702800D1782021684A1E226008702068411E21606A
:2007600030210170287B6F280AD12878000707D520684178302903D0411E21603021017010
:20078000F8BDC04610B5037B702B05D10868021D0A60006800226FE00068384A02400120CB
:2007A0004403A24222D0402A20D00402A24230D04402A24246D0C402A2422AD00403A24209
:2007C00014D0202A12D100221C46643C142C06D8A0402B4C204204D1212420423ED1582BFF
:2007E00049D10868031D0B60008845E000221C46643C142C06D8A040214C204204D121242C
:2008000020422BD1582B36D10868031D0B60006832E01A46643A142A06D89040184A1042DD
:2008200006D12122104203D10020582B024623D10868C21D072082431046083008601068F0
:20084000526819E000221C46643C142C0CD8A0400B4C20420AD12124204205D00868021D1E
:200860000A600068C21707E0582B04D10868031D0B60007800E01046114610BD603F000022
:2008800000081200FEB501920D460646582B01D0174800E0154800900898029030462843C6
:2008A00005D1029A1068411E116030210170019C3046284313D030462946224600F01AF80C
:2008C00007460D46224601F047FA301A0099085C029B19684A1E1A6008703E46E8E7029832
:2008E000006801F01CFD401EFEBDC046402F0000512F000080B5102A06D0082A09D1C0085F
:200900004A078018C90880BD00090A078018090980BD002904D1114601F096F8002180BDAD
:20092000002301F097FC80BD80B582B0032041063F4801F019FB3F490191086011200105BD
:200940003D4801F011FB014601983C4A1160C0788007002813D5FFE701208106344801F074
:20096000B7FB002805D1FFE735490868401E086004E033490868401C0860FFE719E02D4845
:20098000C0784007002813D5FFE701204106284801F09EFB002805D1FFE729490868401C5E
:2009A000086004E026490868401E0860FFE7FFE7FFE722488078C006002813D5FFE7012055
:2009C00001061D4801F084FB002805D1FFE71D490868401E086004E01A490868401C086040
:2009E000FFE719E01548C078C007002813D0FFE701200105104801F06BFB002805D1FFE711
:200A000010490868401C086004E00E490868401E0860FFE7FFE7FFE703204106044801F07F
:200A2000FFF911200105044801F0FAF902B080BD00000A402C05202000200A4030052020CE
:200A40001C05202020052020B0B58AB004460E9809AD2C7008AC217007A90A7006AA13704D
:200A600005AA1070089801AA107007982038087003A900200870FFE703A8007806A9097890
:200A8000884264DAFFE706A800780C280CD1FFE707A800780C2141432F48401803A9097877
:200AA000405C04A908700AE007A8007801012948401803A90978405C04A90870FFE702A91A
:200AC00000200870FFE702A80078072839DCFFE704A800780006002809D5FFE709A800780D
:200AE00008A9097805AA127800F022FC0AE009A8007808A9097805AA127853425A4100F0DF
:200B000017FCFFE70498400004A908700898411C08A80170007801A90978401A06A9097890
:200B2000884208D1FFE7019808A908700998401C09A9087005E0FFE70298401C02A908705F
:200B4000C1E7FFE70398401C03A9087094E70AB0B0BDC046902300008029000080B58EB075
:200B60000D900C910D9801281DDBFFE701200A9041033B480B9001F01BFA0A990B9889039A
:200B800001F0C7FA0D98012803DBFFE70D98099003E00D9840420990FFE70999314800220D
:200BA00001F096FB1CE00120079081032C48089001F0FEF907990898490301F0AAFA0D98C1
:200BC000012803DBFFE70D98069003E00D9840420690FFE706992348002201F079FBFFE7F0
:200BE0000C9801281DDBFFE70120049041041C48059001F0DDF904990598090401F089FAD5
:200C00000C98012803DBFFE70C98039003E00C9840420390FFE703991248012201F058FB2D
:200C20001CE00120019001040D48029001F0C0F901990298490401F06CFA0C98012803DBED
:200C4000FFE70C98009003E00C9840420090FFE700990448012201F03BFBFFE70EB080BDEB
:200C600000000A400020864080B58AB00E200821019101F00DF93A480890042101F05CF970
:200C800001990F2001F004F90199089801F054F914200221029101F0FBF80299152001F096
:200CA0007FF8272001F0E6F8192001F069F90520049001F065F9029801F062F91F2001F0FD
:200CC0005FF91E2001F05CF9252001F059F9262001F056F9232001F053F9222001F050F92E
:200CE000362001F0C7F83A2001F0C4F82F2001F0C1F8332001F0BEF81A4805901A49039106
:200D000001F01BFA0399059801F016F904990598890401F065F9059803214906069101F0E6
:200D20008DF80598069901F097F8089861214902079101F002FA0799089801F0FDF80898BA
:200D40000A4901F04DF9089811210905099101F075F80898099901F07FF80AB080BDC0468A
:200D600000200A4000000A400060039000010100B0B5364A80184A6842600A78222A56D8FD
:200D8000930001A4E3589F46250E00002F0E0000250E00002F0E00002F0E00002F0E0000A1
:200DA0002F0E00002F0E00002F0E00002F0E00002F0E00002F0E00002F0E00002F0E00004B
:200DC0002F0E00002F0E0000150E00002F0E0000150E00002F0E00002F0E00002F0E00005F
:200DE0002F0E00002F0E00002F0E00002F0E00002F0E00002F0E00002F0E00002F0E00000B
:200E00002F0E00002F0E0000150E00002F0E0000150E0000036803242407A34301246407A2
:200E20001B1903E0036803242407A34303600B69C360CB68C46A064D2540064C1C402B19F3
:200E4000C362097A11430160B0BDC046041800008888FDFF7777020080B582B001F0AAF9AF
:200E6000782000F0A3FE01F0AFF9AE200021019100F069FC0199D52000F065FC01995020F0
:200E800000F061FC0199A82000F05DFC01993F2000F059FC0199D32000F055FC0199084666
:200EA00000F051FC0199402000F04DFC01998D2000F049FC0199142000F045FC019920206D
:200EC00000F041FC0199022000F03DFC0199A12000F039FC0199C02000F035FC0199DA2051
:200EE00000F031FC0199122000F02DFC0199812000F029FC0199EF2000F025FC0199D92053
:200F000000F021FC0199F12000F01DFC0199DB2000F019FC0199302000F015FC0199A4202D
:200F200000F011FC0199A62000F00DFC0199AF2000F009FC00F072FC02B080BDF0B584B0D7
:200F40003049314A0125AC0316682B0203939E4316600E68264205D10E68264202D10E6855
:200F60002642F6D06C02467E9769AF432E40BD1995612025455DD6690327BE433D40751989
:200F8000D561224D2E680727374005262E60466A33681362736853622F60C3695B065B0CE5
:200FA000D5697F263602B543EB18D361E8C8009707680197476802971B071B0B2D03ADB27A
:200FC000ED1833071B0D007A009E35431D43019B1D43029B1D43054390690D4B03400D4890
:200FE0002840C01890611068039B184310600868204205D10868204202D108682042F6D0FA
:2010000004B0F0BD04020B4008010B40001340408D00F0FF72FF0F00B0B58CB004461098A8
:201020000BAD2C700AAC2170099208A90B7007A9087004A90020087006A90870FFE706A826
:20104000007808A90978884252DAFFE70998029008990698C0434018C1B20A20039000F01D
:20106000BDFD0146029800F0EFFC039900F0ECFC05A8017004A80078002822D1FFE706A895
:20108000007808A90978491E88421ADAFFE705A80078002810D1FFE70B9807A90B785A084F
:2010A0000699514340180AA9097801220092C0B22022FFF7C9FC16E004A901200870FFE72B
:2010C000FFE70B9807A90B785A080699514340180AA90978059A303201240094C0B2D2B283
:2010E000FFF7B2FCFFE70698401C06A90870A6E70CB0B0BD80B58AB00020099000F086FDF4
:20110000FFF7AAFE0120079000F096FD079800F093FD1020089000F08FFD079800F0A2FD65
:20112000079800F09FFD089800F09CFDFFE77D2001010846FFF712FD1B480121890201F082
:2011400003F91A4805900268194801901949039100F0F6FC019A00210691084600F0B6FA27
:201160000399154802681548029000F0E9FC029A06980A2100F0AAFA039911480268114897
:20118000049000F0DDFC049A0698142100F09EFA059906980A680C21009132210823FFF719
:2011A0003BFF00F017FAC2E70000202038052020BC0420206C2F000024052020DC0420206A
:2011C00028052020FC042020F0B5294A8218294BC0180B79202B0DD0274C002B1CD10D68B8
:2011E0006D1E4560C56E25408835C5660646703688251CE00C68641E4460C46E1E4D2C4001
:201200001E4EA419C466046F2C40A41904671C4C01256D0706460AE00525ED010E68760830
:201220004660C66E26407619C66606467036376827402F433760C46A124D2C40C462046B24
:201240002C4004630024C4640465C46F8F25ED432C40C46714682C40146049791943026874
:20126000094B1340BD220A40D118891C0160F0BD841800000418000024493E00010400009A
:20128000FFFFFFCF8888FDFF4000FFCFF0B58B4200D1824204D90B0002000021002040E016
:2012A000002B00D1002A0CD10B00020000210020002B00D1002A01D0C943C04300F03FFCAC
:2012C0002FE01C0015000B0002000CB4002126002F00FF19764102D2491C4029F9D1002030
:2012E0001E001700FF19764102D2401C4028F9D10E1A21002800320000F082FD0C00050065
:201300000CBC00200021A34200D1AA4201D3521BA341404149416D08E7073D436408761E0F
:20132000F1D5059F002F01D03A607B60F0BD704786B0034605A8037004AB197003A90A706D
:201340006A460021117000787F2805DCFFE704A80078402801DBFFE72DE004A90878C20803
:201360000720821A02AB1A700A78024001A90A700978411A012088406946087003A800787C
:2013800000280CD0FFE7009B05A80078C1000B48411802A80278885C184388540BE0009B71
:2013A00005A80078C1000548411802A80278885C98438854FFE706B07047C0460000202049
:2013C00080B586B0059005981E49884203D3FFE71D480590FFE70599502048430590002055
:2013E0000090049000F0AAFF014600980391029001A90870FFE700F0A1FF029002980399CB
:20140000884204D9FFE701A901200870FFE701A80078002807D0FFE703980299401A0B492C
:201420004018049004E003980299401A0490FFE704980599884201D3FFE700E0DBE706B0BC
:2014400080BDC0463433030033330300FFFFFF0070B582B0024601A8027000910021405677
:20146000002816D4FFE7002401A908570322D3431840174A805809578C07E50EFF24AC4086
:20148000A043009CA401E4B2AC402043194088501AE001A908780F24204008380322D343E0
:2014A00018400A4A8058002549578D07EE0EFF25B540A843009DAD01EDB2B54028432140A4
:2014C000083919408850FFE702B070BD1CED00E000E400E070B582B04A790B79002A25D06B
:2014E000184A202B02D00524E40100E0164C8218002B00D18824156C144E35402D191564C4
:20150000556C35402C1954641468114D2C40146054682C405460002414625462146D8F257D
:20152000ED432C401465546D2C4054650A6800926A461371897951711146FFF745FE02B072
:2015400070BDC046381800000104000024493E008888FDFF80B584B01B491C48039000F098
:20156000DDFC03981A49FFF7B5FF039800230193009319461A4600F06FFD019A039811465D
:2015800000F0BEFC019A0398114600F0A1FE019B039801210291009119461A4600F05CFD00
:2015A0000199029A039800F0ABFC0199029A039800F08EFE039800F0DFFD0398032100F060
:2015C000E5FD04B080BDC046012F000000208640642F000080B584B003A900200870FFE7F6
:2015E00003A8007807282FDCFFE70398B030C0B20021019100F0A7F80199084600F0A3F806
:201600000199102000F09FF8019802A90870FFE702A800787F2811DCFFE702A80078C10058
:201620000A48401803A90978405C012100F08BF8FFE70298401C02A90870E9E7FFE7039852
:20164000401C03A90870CBE704B080BD00002020F8B5451C00780023082B32D02F78C207D9
:201660000CD16A780F241440E41C122C0BD102242E57F4B2002E08D4EE1C0EE06D1C4A1CC8
:201680000F7011461AE0AE1C08E02E1DED7800957F252C40009DED012C1912343D01120904
:2016A0005219094DAA420ED0D243002C05D08D5C4F1C0D70641E3946F7E7354640085B1C9F
:2016C000CAE72846C5E7F8BDFF0F000080B586B005AB187004A801700392FFE7039800782E
:2016E00000282ED0FFE705A800787B2808DBFFE705A9002008700498103004A90870FFE720
:2017000004A800783B2808DBFFE705A90020087004A9087000F082F8FFE705A80290007807
:2017200004A90978039A1278012300930C23FFF78BF902990598083008700398401C039082
:20174000CCE706B080BD80B584B003AA107002A801700078002803D0FFE700F049FD02E0C1
:2017600000F03CFDFFE701A900200870FFE701A8007807281ADCFFE700F044FD03A80078B2
:201780000006002803D5FFE700F05AFD02E000F04DFDFFE700F040FD0398400003A90870E8
:2017A000FFE70198401C01A90870E0E700F020FD04B080BD80B586B01348019000F0ECFB39
:2017C0001248029000F0E8FB1148039000F038FC1048049000F034FC0F48059000F060FCF6
:2017E000019800F0B5FB029800F0B2FB039800F01BFC049800F018FC059800F045FC102039
:2018000000F0A8FD06B080BD00000A4000200A4000208640004008400080104080B582B0E7
:2018200001A900200870FFE701A8007807281EDCFFE7694600200870FFE7684600787F2856
:201840000FDCFFE768460078C1000B48411801A8027800208854FFE70098401C6946087004
:20186000EBE7FFE70198401C01A90870DCE7FFF7B1FE02B080BDC0460000202080B582B095
:2018800012491348019000F0F8FC0198114900F095F80198002100F0A3FA019815212D2248
:2018A00000F01AF8019800F0E3FB0198702100F017FA0198022100F027FA019800F01EFC24
:2018C000019800F010FC02B080BDC046FE2D000000801040F42D000080B584B003900291D3
:2018E000019203980B49401802990B4A00F0D0F903980A49401801993F2200F0C9F90399D6
:20190000074A881889580122114000F0C1F904B080BDC04610110000FFFF0000141100009C
:201920000411000080B582B00020019000F070FB01200090400200F043FA019800F0B6FAC6
:2019400000F0B6FC00F004FC0848FFF7F7FA102000F0BAFA00F006FC019800F053F800988C
:201960000199FFF775FD02B080BDC046042F000080B50C4800F078FC002812D0FFE70A490D
:2019800008680A4A10600A4A10680A4B186000201060086000F004FC07490868401E08600C
:2019A000FFE780BD004008401C0520202405202020052020280520203805202070B511220B
:2019C0001302C218C4580125AC43C4500C888D7825438C882C43C558084E2E40084D2540B4
:2019E000AC19C4508879CB790343087A184351687E23994318400818506070BDE798FDFFA0
:201A00001867000010B50E490E4A01235C0590600868204205D10868204202D1086820423F
:201A2000F6D010681B04034313600868C00605D40868C00602D40868C006F6D510BDC046A1
:201A400004020B4004010B401CB50A0017D000230124E407A04200D20400944201D9520036
:201A6000FBE790425B41904200D3801A914201D25208F6E719000200080011001CBD0100EC
:201A80000020FFF754FC1CBD10B50E4902788B185B78401CDB06F9D400212D2A04D02B2A50
:201AA00002D0401E134600E00378303B092B04D80A244C431919401CF6E72D2A00D14942EC
:201AC000084610BD002E000070B50A480A4C84420CD00A4D0A4EB54208D02A686968501C01
:201AE00012789200A25890470835F4E700BF00BF70BDC0468C2F0000802F00009C2F0000FB
:201B0000AC2F0000FCB4020C0B0CFF242402FF34204021400C00444315005D4306005E43E9
:201B20000F005743320C3B0CA818C01832043B040025A1186841C9186841FCBC7047704733
:201B400082B0F8B5069207930291019006A9039107480090074B02A801AAFEF7B1FA01994D
:201B600000220A7004B080BC02BC02B00847C046B92000005F23000080B582B008490948B0
:201B8000019000F0CBF901980749FFF7F1F80198012100F0A7F9019800F0EEFA02B080BD8D
:201BA000712F0000004008402C2F000080B582B0019000200090FFE700980749884208DC7E
:201BC000FFE70198FFF7FCFBFFE70098401C0090F2E702B080BDC046E703000083B002AA98
:201BE000107001A8017001200090FFE701AA1078411E1170002806D0FFE702A80078009902
:201C000048430090F2E7009803B0704780B5FFF7D1FDFFF729F8FFF785FEFFF79BFCFFF7C2
:201C2000ABFFFFF72BFE00F05BFB0249B8220020885480BD0004202081B00146684601705C
:201C400000214056002809D4FFE7684601781F2001400120884002490860FFE701B0704751
:201C600080E200E081B001466846017000214056002809D4FFE7684601781F200140012021
:201C8000884002490860FFE701B0704700E100E084B00390029101920398006800900098A2
:201CA00001998843009000980299019A114008430399086004B0704781B000900549042023
:201CC00008600098401E0449086004490020086001B0704710E000E014E000E018E000E038
:201CE00080B584B0019101460198039102A908700398044A801809787022FFF7C9FF04B04C
:201D000080BDC0460C11000080B584B0019101460198039102A908700398044A80180978CF
:201D20000722FFF7B5FF04B080BDC0460C110000084880F3088800BF00BF00F026FB0028B2
:201D400001D0FFF7C1FE0020FFF7D4F9012000F013FBC0460080202030B514004C43250088
:201D60001C0044436419050010002900FFF7CAFE001904000D002100280030BDB0B5044638
:201D80000020002B08D0D2B20D782570954204D0641C491C5B1EF7D1B0BD601CB0BD00005B
:201DA00082B00190009100980349084301998900024A885002B07047800004000480424066
:201DC00080B582B0014601A8018001880F2002020248FFF75DFF02B080BDC04604010B408E
:201DE00080B582B001900091019811210902401800990322D203FFF74BFF02B080BD00006A
:201E000018B520239B1A04D8010000205B42994004E004009140DC402143904018BD0000AC
:201E200082B001900091009B0199034A88581843885002B07047C0464810000082B001902F
:201E40000091009B0199034A88581843885002B07047C0464810000082B001900091009BA6
:201E60000199034A88581843885002B07047C0462810000081B0009000988100024A034850
:201E8000885001B07047C046048042408100040082B0019000910098802108430199890076
:201EA000014A885002B070470480424080B582B0014601A80170017802480322FFF7E8FE04
:201EC00002B080BD00010B4080B582B0014601A80170017802483022FFF7DAFE02B080BD2D
:201EE00004010B4082B001900091009B0199034A88581843885002B07047C0462810000002
:201F000010B592008018044A83580724A404A34321405918815010BD3018000010B5012250
:201F2000120383180C789C604B7883508978014A815010BD0C11000082B0019000910098E8
:201F40000199024A885002B07047C046D012000081B0009000990120C2020248885001B060
:201F60007047C0460100002682B0019000910198024940580099084002B07047381000001B
:201F800081B0009000988100024A8120885001B07047C0460480424081B000900099024A88
:201FA0000248885001B0704704080000030000B182B00190009100980199024A885002B07B
:201FC0007047C0469012000082B00190009100980199024A885002B07047C04690120000E7
:201FE00082B001900091009B01999D20420188581843885002B0704782B0019000910098F0
:202000000199024A885002B07047C046B012000081B001466846017000780249086001B05E
:202020007047C04608030B4081B0009000990120C2020248885001B07047C0460100002697
:2020400081B000900099024A0248885001B0704704080000030000B110B5029CA400001970
:2020600011431943014A815010BDC0465018000081B00090009911200202885801235B0467
:202080001843885001B0704781B0009000990120C2020248885001B07047C04601000026AF
:2020A00081B000900099024A0248885001B0704704080000030000B1B0B514460D460146D7
:2020C000286800F055F92868001928602046B0BD82B00190009101982721C90140580099FE
:2020E000084002B0704781B00090009911200202885801231843885001B0704781B0009040
:20210000009911200202885804231843885001B0704782B0019000910098019995225201BF
:20212000885002B0704782B0019000910098019995225201885002B0704782B00190009139
:202140000098019995225201885002B0704700000349086801221202904308607047C04617
:2021600008010B400349086801221203104308607047C04604010B4081B000900099024AA9
:202180000120885001B070470811000082B0019000910098019911221202885002B07047B7
:2021A00080B5012041020248FFF726FF80BDC04600200A4080B5012081030248FFF7B3FFA8
:2021C00080BDC04600200A4080B5012081030248FFF7FAFE80BDC04600200A4080B501203D
:2021E000C1030248FFF79FFF80BDC04600200A4080B50120C1030248FFF7E6FE80BDC0460F
:2022000000200A4080B5012001070248FFF78BFF80BDC04600000A4080B5012001070248F7
:20222000FFF7D2FE80BDC04600000A4080B50120C1070248FFF777FF80BDC04600000A40EA
:2022400080B50120C1070248FFF7BEFE80BDC04600000A4040B584B002AE0096FFF716F864
:20226000029A039B04B040BD81B000900098812149014058C0B201B0704710B501221203BF
:2022800083180C789C604978815010BD10B500239A4203D0CC5CC4545B1CF9E710BD80B594
:2022A0000B4603214258C11D184600F061F880BD02490868012290430860704708010B4029
:2022C00002490868052210430860704710E000E092008018014A81507047C04610180000AF
:2022E00080B501200006FFF7E7FCFFF7E9FF80BD00214258091D002AFBD1081F8010704749
:2023000080B50A4603214158104600F01DF880BD0B4611461A4680B500F008F880BD002158
:20232000425C491C002AFBD1481E704700239A4202D0C1545B1CFAE77047000001480068E1
:202340007047C04618E000E00A46002180B5FFF7EDFF80BD811E091F00BFFCD270470A68A6
:20236000531C0B6010707047004870473405202080B5FFF78BFF80BD00F003F8FEE7FFE72C
:10238000FEE700BF7047D3E47047012070470000AC
:20239000000000000000000000000000000000000000000000001FCC000C00000000000036
:2023B00000000800300060000800300060000000022003FC1E20022003FC1E2002200000FD
:2023D00000000E1811043FFF10840C78000000000F0010840F3800C007781884007800001F
:2023F00000780F8410C411240E9800E40084000808006800700000000000000000000000C3
:2024100000000000000007E01818200440020000000040022004181807E0000000000000B2
:202430000240024001800FF001800240024000000080008000800FF800800080008000007C
:202450000001000D000E0000000000000000000000000080008000800080008000800080D0
:202470000000000C000C0000000000000000000000000006001800600180060018002000F7
:20249000000007F0080810041004080807F000000000080408041FFC0004000400000000BB
:2024B00000000E0C10141024104411840E0C000000000C1810041104110412880C7000001F
:2024D000000000E00320042408241FFC0024000000001F98108411041104108810700000C9
:2024F000000007F008881104110418880070000000001C00100010FC13001C001000000094
:2025100000000E3811441084108411440E38000000000700088C10441044088807F0000083
:20253000000000000000030C030C0000000000000000000000010106000000000000000065
:20255000000000800140022004100808100400000220022002200220022002200220000062
:202570000000100408080410022001400080000000000E001200100C106C10800F000000D9
:2025900003E00C1813E4142417C4082807D000000004003C03C41C40074000E4001C000465
:2025B00010041FFC1104110411040E880070000003E00C1810041004100410081C10000010
:2025D00010041FFC100410041004080807F0000010041FFC1104110417C410040818000011
:2025F00010041FFC1104110017C010000800000003E00C181004100410441C780040000030
:2026100010041FFC10840080008010841FFC10040000100410041FFC1004100400000000B9
:2026300000030001100110011FFE10001000000010041FFC110403801464181C10040000A0
:2026500010041FFC1004000400040004000C000010041FFC1F0000FC1F001FFC1004000077
:2026700010041FFC0C04030000E010181FFC100007F00808100410041004080807F000008B
:2026900010041FFC10841080108010800F00000007F0081810241024101C080A07F20000F2
:2026B00010041FFC1104110011C011300E0C000400000E1C11041084108410441C38000076
:2026D0001800100010041FFC100410001800000010001FF810040004000410041FF81000D9
:2026F00010001E0011E0001C007013801C0010001FC0103C00E01F0000E0103C1FC000002B
:202710001004180C163401C001C01634180C100410001C00130400FC13041C0010000000A1
:202730000804101C1064108413041C04101800000000000000007FFE4002400240020000A7
:20275000000030000C0003800060001C0003000000004002400240027FFE000000000000E8
:20277000000000002000400040004000200000000001000100010001000100010001000141
:202790000000400040002000000000000000000000000098012401440144014400FC0004FD
:2027B00010001FFC00880104010400880070000000000070008801040104010400880000C5
:2027D0000000007000880104010411081FFC0004000000F8014401440144014400C80000DB
:2027F0000000010401040FFC1104110411001800000000D601290129012901C9010600003C
:2028100010041FFC008401000100010400FC000400000104190419FC0004000400000000AF
:202830000000000300010101190119FE0000000010041FFC0024004001B4010C01040000F7
:202850000000100410041FFC0004000400000000010401FC0104010001FC0104010000FC16
:20287000010401FC008401000100010400FC0004000000F8010401040104010400F80000B7
:20289000010101FF00850104010400880070000000000070008801040104010501FF000196
:2028B0000104010401FC00840104010001800000000000CC012401240124012401980000FD
:2028D00000000100010007F80104010400000000010001F8000400040004010801FC0004CD
:2028F000010001800170000C001001600180010001F0010C003001C00030010C01F00100B8
:2029100000000104018C00740170018C01040000010101810171000E00180160018001009F
:2029300000000184010C013401440184010C0000000000000000000001003EFC400240022A
:202950000000000000000000FFFF0000000000000000400240023EFC0100000000000000AA
:20297000000060008000800040004000200020000000000000000000000000000000000027
:202990003F4000000000000000003000400030004000000009000BC03D000BC03D000900A6
:2029B00018C024407FE0224031800000180024C01B000D803240018003801C4027401C80E0
:2029D000074000401000600000000000000000000000000000001F80204040200000402031
:2029F00020401F8000000000090006001F80060009000000040004003F800400040000003C
:202A10000010006000000000000000000400040004000400040000000000004000000000E2
:202A300000000000002001C006003800400000001F802040204020401F8000000000104079
:202A50003FC000400000000018C02140224024401840000010802040244024401B8000007D
:202A700002000D0011003FC0014000003C80244024402440238000001F8024402440344080
:202A9000038000003000200027C03800200000001B802440244024401B8000001C0022C0B4
:202AB000224022401F800000000000000840000000000000000000000460000000000000F7
:202AD000000004000A00110020804040090009000900090009000000000040402080110049
:202AF0000A0004001800200023402400180000001F802040274029401F400000004007C0AC
:202B100039000F0001C0004020403FC0244024401B8000001F80204020402040308000002B
:202B300020403FC0204020401F80000020403FC024402E4030C0000020403FC024402E00B5
:202B5000300000000F001080204022403380020020403FC0040004003FC020402040204099
:202B70003FC02040204000000060202020203FC02000200020403FC024400B0030C0204049
:202B900020403FC020400040004000C03FC03C0003C03C003FC0000020403FC00C4023001F
:202BB0003FC020001F802040204020401F80000020403FC024402400180000001F80214089
:202BD000214020E01FA0000020403FC02440260019C0004018C02440244022403180000010
:202BF000300020403FC020403000000020003F80004000403F80200020003E0001C0070042
:202C100038002000380007C03C0007C038000000204039C0060039C02040000020003840C2
:202C300007C0384020000000304021C02640384020C00000000000007FE0402040200000F7
:202C5000000070000C000380004000000000402040207FE000000000000020004000200086
:202C7000000000000010001000100010001000100000000040000000000000000000028022
:202C90000540054003C0004020003FC004400440038000000000038004400440064000001C
:202CB00000000380044024403FC00040000003800540054003400000000004401FC02440C3
:202CD00024402000000002E0055005500650042020403FC00440040003C00040000004406C
:202CF00027C000400000000000100010041027E00000000020403FC00140070004C00440B3
:202D1000204020403FC000400040000007C0040007C0040003C00000044007C004400400B8
:202D300003C00040000003800440044003800000041007F004500440038000000000038049
:202D50000440045007F00010044007C00240040004000000000006400540054004C00000DB
:202D7000000004001F80044000400000040007800040044007C000400400070004C00180B6
:202D900006000400060001C0070001C006000000044006C0010006C0044000000410071044
:202DB00004E00180060004000000044005C00640044000000000000004007BE04020000042
:202DD000000000000000FFF000000000000040207BE0040000000000400080004000200015
:202DF000200040000000180000000030000008000080808080808080808090909090908043
:202E10008080808080808080808080808080808080180404040404040404040404040404D2
:202E30000402020202020202020202040404040404044343434343434141414141414141B4
:202E5000414141414141414141414141040404040404232323232323212121212121212164
:202E7000212121212121212121212121040404048000000000000000000000000000000026
:202E9000000000000000000000000000000000000000000000000000000000000000000022
:202EB000000000000000000000000000000000000000000000000000000000000000000002
:202ED0000000000000000000000000000000000000000000000000000000000000000000E2
:202EF0000000000000000000000000000000000000080000010000000000000000000000B9
:202F10004000000000000000000000000200000004000000010000002C00C4410200000027
:202F3000D330000001000000000000000000000030313233343536373839414243444546DB
:202F50000030313233343536373839616263646566000000401F000020000100252D366493
:102F70000008001F0000000000000000000000002A
:202F8000511600009F2200000123000002000000340500000001000004FFF0008C2F0000FB
:102FA00000002020942F00003405202000000000A5
:00000001FF
