:2000000000802020890F0000810F0000810F00000000000000000000000000000000000068
:20002000000000000000000000000000810F00000000000000000000810F0000810F000010
:20004000810F0000C1000000810F0000810F0000810F0000810F0000810F0000810F0000EF
:2000600000000000810F0000810F00000000000000000000810F0000810F0000810F0000B0
:20008000810F0000810F0000810F0000810F0000810F0000810F0000000000000000000000
:2000A000810F0000810F00000000000000000000810F000000000000810F0000810F000070
:2000C00080B582B0032041063F4800F019FE3F4901910860112001053D4800F011FE01463D
:2000E00001983C4A1160C0788007002813D5FFE701208106344800F09FFE002805D1FFE726
:2001000035490868401E086004E033490868401C0860FFE719E02D48C0784007002813D5B4
:20012000FFE701204106284800F086FE002805D1FFE729490868401C086004E02649086840
:20014000401E0860FFE7FFE7FFE722488078C006002813D5FFE7012001061D4800F06CFE22
:20016000002805D1FFE71D490868401E086004E01A490868401C0860FFE719E01548C07810
:20018000C007002813D0FFE701200105104800F053FE002805D1FFE710490868401C086076
:2001A00004E00E490868401E0860FFE7FFE7FFE703204106044800F0FFFC112001050448F8
:2001C00000F0FAFC02B080BD00000A40C400202000200A40C8002020BC002020C00020208E
:2001E00080B58EB00D900C910D9801281DDBFFE701200A9041033B480B9000F0A5FD0A9954
:200200000B98890300F044FE0D98012803DBFFE70D98099003E00D9840420990FFE7099982
:200220003148002200F094FE1CE00120079081032C48089000F088FD07990898490300F06C
:2002400027FE0D98012803DBFFE70D98069003E00D9840420690FFE706992348002200F00A
:2002600077FEFFE70C9801281DDBFFE70120049041041C48059000F067FD049905980904EA
:2002800000F006FE0C98012803DBFFE70C98039003E00C9840420390FFE703991248012207
:2002A00000F056FE1CE00120019001040D48029000F04AFD01990298490400F0E9FD0C982E
:2002C000012803DBFFE70C98009003E00C9840420090FFE700990448012200F039FEFFE769
:2002E0000EB080BD00000A400020864080B588B00E200821009100F097FC344806900421C4
:2003000000F0E6FC00990F2000F08EFC0099069800F0DEFC14200221019100F085FC0199D4
:20032000152000F019FC272000F070FC192000F0F3FC252000F0F0FC262000F0EDFC232045
:2003400000F0EAFC222000F0E7FC362000F05EFC3A2000F05BFC2F2000F058FC332000F09B
:2003600055FC1B20410302911948039000F09AFD0299039800F0ACFC03980521890400F093
:20038000EFFC039803214906049100F023FC0398049900F02DFC069801214902059100F0DE
:2003A00081FD0599069800F093FC0698094900F0D7FC069811210905079100F00BFC069846
:2003C000079900F015FC08B080BDC04600200A4000000A4000010100B0B5364A80184A689C
:2003E00042600A78222A56D8930001A4E3589F468D040000970400008D04000097040000AF
:20040000970400009704000097040000970400009704000097040000970400009704000004
:20042000970400009704000097040000970400007D040000970400007D0400009704000018
:200440009704000097040000970400009704000097040000970400009704000097040000C4
:20046000970400009704000097040000970400007D040000970400007D04000003680324E1
:200480002407A343012464071B1903E0036803242407A34303600B69C360CB68C46A064D53
:2004A0002540064C1C402B19C362097A11430160B0BDC046041800008888FDFF77770200FD
:2004C000F0B584B03049314A0125AC0316682B0203939E4316600E68264205D10E68264250
:2004E00002D10E682642F6D06C02467E9769AF432E40BD1995612025455DD6690327BE43D6
:200500003D407519D561224D2E680727374005262E60466A33681362736853622F60C3692C
:200520005B065B0CD5697F263602B543EB18D361E8C8009707680197476802971B071B0BCB
:200540002D03ADB2ED1833071B0D007A009E35431D43019B1D43029B1D43054390690D4B23
:2005600003400D482840C01890611068039B184310600868204205D10868204202D1086814
:200580002042F6D004B0F0BD04020B4008010B40001340408D00F0FF72FF0F00F0B5294A86
:2005A0008218294BC0180B79202B0DD0274C002B1CD10D686D1E4560C56E25408835C566F9
:2005C0000646703688251CE00C68641E4460C46E1E4D2C401E4EA419C466046F2C40A419EE
:2005E00004671C4C01256D0706460AE00525ED010E6876084660C66E26407619C666064605
:200600007036376827402F433760C46A124D2C40C462046B2C4004630024C4640465C46FDC
:200620008F25ED432C40C46714682C401460497919430268094B1340BD220A40D118891CFD
:200640000160F0BD841800000418000024493E0001040000FFFFFFCF8888FDFF4000FFCF3E
:2006600070B582B0024601A80270009100214056002816D4FFE7002401A908570322D34318
:200680001840174A805809578C07E50EFF24AC40A043009CA401E4B2AC402043194088509A
:2006A0001AE001A908780F24204008380322D34318400A4A8058002549578D07EE0EFF250B
:2006C000B540A843009DAD01EDB2B54028432140083919408850FFE702B070BD1CED00E06F
:2006E00000E400E070B582B04A790B79002A25D0184A202B02D00524E40100E0164C821810
:20070000002B00D18824156C144E35402D191564556C35402C1954641468114D2C4014602D
:2007200054682C405460002414625462146D8F25ED432C401465546D2C4054650A68009259
:200740006A461371897951711146FFF727FF02B070BDC046381800000104000024493E0049
:200760008888FDFF80B584B01B491C48039000F0A1FA03981A49FFF7B5FF03980023019324
:20078000009319461A4600F027FB019A0398114600F082FA019A0398114600F0D9FB019B0F
:2007A000039801210291009119461A4600F014FB0199029A039800F06FFA0199029A03989F
:2007C00000F0C6FB039800F08BFB0398032100F091FB04B080BDC046E00F00000020864050
:2007E000D80F000080B586B01348019000F0A0FA1248029000F09CFA1148039000F0E0FA09
:200800001048049000F0DCFA0F48059000F008FB019800F069FA029800F066FA039800F0E6
:20082000C3FA049800F0C0FA059800F0EDFA102000F09EFB06B080BD00000A4000200A40E1
:2008400000208640004008400080104080B582B012491348019000F061FB0198114900F07D
:200860006FF80198002100F097F9019815212D2200F01AF8019800F0BBFA0198702100F05F
:200880001BF90198022100F02BF9019800F0EAFA019800F0DCFA02B080BDC046D60F0000CE
:2008A00000801040CC0F000080B584B003900291019203980B49401802990B4A00F0D4F878
:2008C00003980A49401801993F2200F0CDF80399074A881889580122114000F0C5F804B0DF
:2008E00080BDC04610110000FFFF0000141100000411000080B582B00020019000F048FA12
:2009000001200090400200F037F9019800F09AF900F00EFB00F0D0FA0848FFF7D1FD1020B1
:2009200000F09EF900F0D2FA019800F02DF800980199FFF795FE02B080BDC046900F000077
:2009400070B511221302C218C4580125AC43C4500C888D7825438C882C43C558084E2E40A6
:20096000084D2540AC19C4508879CB790343087A184351687E23994318400818506070BDF1
:20098000E798FDFF1867000010B50E490E4A01235C0590600868204205D10868204202D127
:2009A00008682042F6D010681B04034313600868C00605D40868C00602D40868C006F6D533
:2009C00010BDC04604020B4004010B4070B50A480A4C84420CD00A4D0A4EB54208D02A6824
:2009E0006968501C12789200A25890470835F4E700BF00BF70BDC046F40F0000F00F000002
:200A0000F40F0000FC0F000080B582B008490948019000F04FF901980749FFF7DDFC0198A5
:200A2000012100F02BF9019800F05AFA02B080BDE30F000000400840B80F000080B5FFF748
:200A4000D1FEFFF753FCFFF755FFFFF78BFEFFF7DBFFFFF7FBFE00F083FA0249B822002048
:200A6000885480BD0000202084B00390029101920398006800900098019988430090009878
:200A80000299019A114008430399086004B0704781B000900549042008600098401E044937
:200AA000086004490020086001B0704710E000E014E000E018E000E080B584B001910146D3
:200AC0000198039102A908700398044A801809787022FFF7C9FF04B080BDC0460C11000060
:200AE00080B584B0019101460198039102A908700398044A801809780722FFF7B5FF04B0DB
:200B000080BDC0460C11000080B582B000200190FFF794FFFFE700F0F7F9044800F028FAB0
:200B20007D2001010846FFF75BFBF4E70024F400084880F3088800BF00BF00F027FA00287F
:200B400001D0FFF743FF0020FFF7DEFF012000F014FAC0460080202082B0019000910098C8
:200B60000349084301998900024A885002B07047800004000480424080B582B0014601A84D
:200B8000018001880F2002020248FFF76DFF02B080BDC04604010B4080B582B0019000919E
:200BA000019811210902401800990322D203FFF75BFF02B080BD000082B001900091009B46
:200BC0000199034A88581843885002B07047C0464810000082B001900091009B0199034A7E
:200BE00088581843885002B07047C0464810000082B001900091009B0199034A885818430A
:200C0000885002B07047C0462810000081B0009000988100024A0348885001B07047C0469E
:200C2000048042408100040082B00190009100988021084301998900014A885002B07047A2
:200C40000480424080B582B0014601A80170017802480322FFF708FF02B080BD00010B40A6
:200C600080B582B0014601A80170017802483022FFF7FAFE02B080BD04010B4082B00190A7
:200C80000091009B0199034A88581843885002B07047C0462810000010B592008018044A4A
:200CA00083580724A404A34321405918815010BD3018000010B50122120383180C789C60D0
:200CC0004B7883508978014A815010BD0C11000082B00190009100980199024A885002B01B
:200CE0007047C046D012000081B0009000990120C2020248885001B07047C046010000265F
:200D000082B0019000910198024940580099084002B070473810000081B000900098810097
:200D2000024A8120885001B07047C0460480424081B000900099024A0248885001B070474A
:200D400004080000030000B182B00190009100980199024A885002B07047C0469012000018
:200D600082B001900091009B01999D20420188581843885002B0704782B001900091009882
:200D80000199024A885002B07047C046B012000081B001466846017000780249086001B0F1
:200DA0007047C04608030B4081B0009000990120C2020248885001B07047C046010000262A
:200DC00081B000900099024A0248885001B0704704080000030000B110B5029CA400001903
:200DE00011431943014A815010BDC0465018000081B00090009911200202885801235B04FA
:200E00001843885001B0704781B0009000990120C2020248885001B07047C0460100002641
:200E200081B000900099024A0248885001B0704704080000030000B182B0019000910198D5
:200E40002721C90140580099084002B0704781B000900099112002028858012318438850D8
:200E600001B0704781B00090009911200202885804231843885001B07047032280580028B4
:200E800005D0401E4A1C00230B701146F7E7704782B00190009100980199952252018850C7
:200EA00002B0704782B0019000910098019995225201885002B07047034908680122120205
:200EC000904308607047C04608010B400349086801221203104308607047C04604010B400A
:200EE00081B000900099024A0120885001B070470811000082B00190009100980199112219
:200F00001202885002B0704780B5012041020248FFF732FF80BDC04600200A4010B50122DD
:200F2000120383180C789C604978815010BD000002490868012290430860704708010B40FE
:200F400002490868052210430860704710E000E092008018014A81507047C0461018000042
:200F600080B501200006FFF793FDFFF7E9FF80BD811E091F00BFFCD2704700F003F8FEE799
:100F8000FFE7FEE700BF7047D2E5704701207047DA
:200F90000100000000000000000000004000000000000000000000000200000004000000FA
:200FB000010000002C00C44102000000D330000001000000000000000000000000001800D1
:180FD0000000003000000800401F00002000010008000008001F000022
:180FE80000000000CC0000007B0E0000E80F0000000020200000000065
:00000001FF
